{
  "contractName": "DissolveSocial",
  "abi": [
    {
      "anonymous": false,
      "inputs": [
        {
          "indexed": true,
          "internalType": "address",
          "name": "author",
          "type": "address"
        },
        {
          "indexed": false,
          "internalType": "string",
          "name": "content",
          "type": "string"
        },
        {
          "indexed": false,
          "internalType": "string",
          "name": "media",
          "type": "string"
        },
        {
          "indexed": false,
          "internalType": "uint256",
          "name": "timestamp",
          "type": "uint256"
        }
      ],
      "name": "PostCreated",
      "type": "event"
    },
    {
      "inputs": [
        {
          "internalType": "uint256",
          "name": "",
          "type": "uint256"
        }
      ],
      "name": "posts",
      "outputs": [
        {
          "internalType": "address",
          "name": "author",
          "type": "address"
        },
        {
          "internalType": "string",
          "name": "content",
          "type": "string"
        },
        {
          "internalType": "string",
          "name": "media",
          "type": "string"
        },
        {
          "internalType": "uint256",
          "name": "timestamp",
          "type": "uint256"
        }
      ],
      "stateMutability": "view",
      "type": "function"
    },
    {
      "inputs": [
        {
          "internalType": "address",
          "name": "",
          "type": "address"
        }
      ],
      "name": "profiles",
      "outputs": [
        {
          "internalType": "string",
          "name": "name",
          "type": "string"
        },
        {
          "internalType": "uint256",
          "name": "age",
          "type": "uint256"
        },
        {
          "internalType": "string",
          "name": "dob",
          "type": "string"
        },
        {
          "internalType": "string",
          "name": "username",
          "type": "string"
        },
        {
          "internalType": "string",
          "name": "password",
          "type": "string"
        }
      ],
      "stateMutability": "view",
      "type": "function"
    },
    {
      "inputs": [
        {
          "internalType": "string",
          "name": "_name",
          "type": "string"
        },
        {
          "internalType": "uint256",
          "name": "_age",
          "type": "uint256"
        },
        {
          "internalType": "string",
          "name": "_dob",
          "type": "string"
        },
        {
          "internalType": "string",
          "name": "_username",
          "type": "string"
        },
        {
          "internalType": "string",
          "name": "_password",
          "type": "string"
        }
      ],
      "name": "registerProfile",
      "outputs": [],
      "stateMutability": "nonpayable",
      "type": "function"
    },
    {
      "inputs": [
        {
          "internalType": "string",
          "name": "_content",
          "type": "string"
        },
        {
          "internalType": "string",
          "name": "_media",
          "type": "string"
        }
      ],
      "name": "createPost",
      "outputs": [],
      "stateMutability": "nonpayable",
      "type": "function"
    }
  ],
  "bytecode": "0x608060405234801561000f575f80fd5b50610ec48061001d5f395ff3fe608060405234801561000f575f80fd5b506004361061004a575f3560e01c80630b1e7f831461004e578063392338f514610081578063bbe156271461009d578063bc604017146100d1575b5f80fd5b610068600480360381019061006391906106e3565b6100ed565b60405161007894939291906107e6565b60405180910390f35b61009b60048036038101906100969190610963565b610253565b005b6100b760048036038101906100b29190610a03565b610389565b6040516100c8959493929190610a2e565b60405180910390f35b6100eb60048036038101906100e69190610a9b565b6105d2565b005b600181815481106100fc575f80fd5b905f5260205f2090600402015f91509050805f015f9054906101000a900473ffffffffffffffffffffffffffffffffffffffff169080600101805461014090610baf565b80601f016020809104026020016040519081016040528092919081815260200182805461016c90610baf565b80156101b75780601f1061018e576101008083540402835291602001916101b7565b820191905f5260205f20905b81548152906001019060200180831161019a57829003601f168201915b5050505050908060020180546101cc90610baf565b80601f01602080910402602001604051908101604052809291908181526020018280546101f890610baf565b80156102435780601f1061021a57610100808354040283529160200191610243565b820191905f5260205f20905b81548152906001019060200180831161022657829003601f168201915b5050505050908060030154905084565b5f60405180608001604052803373ffffffffffffffffffffffffffffffffffffffff168152602001848152602001838152602001428152509050600181908060018154018082558091505060019003905f5260205f2090600402015f909190919091505f820151815f015f6101000a81548173ffffffffffffffffffffffffffffffffffffffff021916908373ffffffffffffffffffffffffffffffffffffffff160217905550602082015181600101908161030f9190610d7c565b5060408201518160020190816103259190610d7c565b506060820151816003015550503373ffffffffffffffffffffffffffffffffffffffff167f4dc899ab633bbd3c97004820698910906a6748451e00b59a3e011358dc2f9fb584844260405161037c93929190610e4b565b60405180910390a2505050565b5f602052805f5260405f205f91509050805f0180546103a790610baf565b80601f01602080910402602001604051908101604052809291908181526020018280546103d390610baf565b801561041e5780601f106103f55761010080835404028352916020019161041e565b820191905f5260205f20905b81548152906001019060200180831161040157829003601f168201915b50505050509080600101549080600201805461043990610baf565b80601f016020809104026020016040519081016040528092919081815260200182805461046590610baf565b80156104b05780601f10610487576101008083540402835291602001916104b0565b820191905f5260205f20905b81548152906001019060200180831161049357829003601f168201915b5050505050908060030180546104c590610baf565b80601f01602080910402602001604051908101604052809291908181526020018280546104f190610baf565b801561053c5780601f106105135761010080835404028352916020019161053c565b820191905f5260205f20905b81548152906001019060200180831161051f57829003601f168201915b50505050509080600401805461055190610baf565b80601f016020809104026020016040519081016040528092919081815260200182805461057d90610baf565b80156105c85780601f1061059f576101008083540402835291602001916105c8565b820191905f5260205f20905b8154815290600101906020018083116105ab57829003601f168201915b5050505050905085565b6040518060a00160405280868152602001858152602001848152602001838152602001828152505f803373ffffffffffffffffffffffffffffffffffffffff1673ffffffffffffffffffffffffffffffffffffffff1681526020019081526020015f205f820151815f0190816106489190610d7c565b506020820151816001015560408201518160020190816106689190610d7c565b50606082015181600301908161067e9190610d7c565b5060808201518160040190816106949190610d7c565b509050505050505050565b5f604051905090565b5f80fd5b5f80fd5b5f819050919050565b6106c2816106b0565b81146106cc575f80fd5b50565b5f813590506106dd816106b9565b92915050565b5f602082840312156106f8576106f76106a8565b5b5f610705848285016106cf565b91505092915050565b5f73ffffffffffffffffffffffffffffffffffffffff82169050919050565b5f6107378261070e565b9050919050565b6107478161072d565b82525050565b5f81519050919050565b5f82825260208201905092915050565b5f5b83811015610784578082015181840152602081019050610769565b5f8484015250505050565b5f601f19601f8301169050919050565b5f6107a98261074d565b6107b38185610757565b93506107c3818560208601610767565b6107cc8161078f565b840191505092915050565b6107e0816106b0565b82525050565b5f6080820190506107f95f83018761073e565b818103602083015261080b818661079f565b9050818103604083015261081f818561079f565b905061082e60608301846107d7565b95945050505050565b5f80fd5b5f80fd5b7f4e487b71000000000000000000000000000000000000000000000000000000005f52604160045260245ffd5b6108758261078f565b810181811067ffffffffffffffff821117156108945761089361083f565b5b80604052505050565b5f6108a661069f565b90506108b2828261086c565b919050565b5f67ffffffffffffffff8211156108d1576108d061083f565b5b6108da8261078f565b9050602081019050919050565b828183375f83830152505050565b5f610907610902846108b7565b61089d565b9050828152602081018484840111156109235761092261083b565b5b61092e8482856108e7565b509392505050565b5f82601f83011261094a57610949610837565b5b813561095a8482602086016108f5565b91505092915050565b5f8060408385031215610979576109786106a8565b5b5f83013567ffffffffffffffff811115610996576109956106ac565b5b6109a285828601610936565b925050602083013567ffffffffffffffff8111156109c3576109c26106ac565b5b6109cf85828601610936565b9150509250929050565b6109e28161072d565b81146109ec575f80fd5b50565b5f813590506109fd816109d9565b92915050565b5f60208284031215610a1857610a176106a8565b5b5f610a25848285016109ef565b91505092915050565b5f60a0820190508181035f830152610a46818861079f565b9050610a5560208301876107d7565b8181036040830152610a67818661079f565b90508181036060830152610a7b818561079f565b90508181036080830152610a8f818461079f565b90509695505050505050565b5f805f805f60a08688031215610ab457610ab36106a8565b5b5f86013567ffffffffffffffff811115610ad157610ad06106ac565b5b610add88828901610936565b9550506020610aee888289016106cf565b945050604086013567ffffffffffffffff811115610b0f57610b0e6106ac565b5b610b1b88828901610936565b935050606086013567ffffffffffffffff811115610b3c57610b3b6106ac565b5b610b4888828901610936565b925050608086013567ffffffffffffffff811115610b6957610b686106ac565b5b610b7588828901610936565b9150509295509295909350565b7f4e487b71000000000000000000000000000000000000000000000000000000005f52602260045260245ffd5b5f6002820490506001821680610bc657607f821691505b602082108103610bd957610bd8610b82565b5b50919050565b5f819050815f5260205f209050919050565b5f6020601f8301049050919050565b5f82821b905092915050565b5f60088302610c3b7fffffffffffffffffffffffffffffffffffffffffffffffffffffffffffffffff82610c00565b610c458683610c00565b95508019841693508086168417925050509392505050565b5f819050919050565b5f610c80610c7b610c76846106b0565b610c5d565b6106b0565b9050919050565b5f819050919050565b610c9983610c66565b610cad610ca582610c87565b848454610c0c565b825550505050565b5f90565b610cc1610cb5565b610ccc818484610c90565b505050565b5b81811015610cef57610ce45f82610cb9565b600181019050610cd2565b5050565b601f821115610d3457610d0581610bdf565b610d0e84610bf1565b81016020851015610d1d578190505b610d31610d2985610bf1565b830182610cd1565b50505b505050565b5f82821c905092915050565b5f610d545f1984600802610d39565b1980831691505092915050565b5f610d6c8383610d45565b9150826002028217905092915050565b610d858261074d565b67ffffffffffffffff811115610d9e57610d9d61083f565b5b610da88254610baf565b610db3828285610cf3565b5f60209050601f831160018114610de4575f8415610dd2578287015190505b610ddc8582610d61565b865550610e43565b601f198416610df286610bdf565b5f5b82811015610e1957848901518255600182019150602085019450602081019050610df4565b86831015610e365784890151610e32601f891682610d45565b8355505b6001600288020188555050505b505050505050565b5f6060820190508181035f830152610e63818661079f565b90508181036020830152610e77818561079f565b9050610e8660408301846107d7565b94935050505056fea2646970667358221220c8467db5f1e7e389a4bbb6a7a8b15e34756a54b90bcca2f13d3cdb810259393464736f6c63430008180033",
  "immutableReferences": {},
  "source": "// SPDX-License-Identifier: MIT\r\npragma solidity ^0.8.0;\r\n\r\ncontract DissolveSocial {\r\n    // Define data structures for user profiles and posts\r\n    struct Profile {\r\n        string name;\r\n        uint256 age;\r\n        string dob;\r\n        string username;\r\n        string password; // NOTE: Storing passwords in plaintext is not recommended in a production environment\r\n    }\r\n\r\n    struct Post {\r\n        address author;\r\n        string content;\r\n        string media;\r\n        uint256 timestamp;\r\n    }\r\n\r\n    // Mapping from address to user profiles\r\n    mapping(address => Profile) public profiles;\r\n\r\n    // Array of posts\r\n    Post[] public posts;\r\n\r\n    // Event to emit when a new post is created\r\n    event PostCreated(address indexed author, string content, string media, uint256 timestamp);\r\n\r\n    // Function to register a new user profile\r\n    function registerProfile(string memory _name, uint256 _age, string memory _dob, string memory _username, string memory _password) public {\r\n        profiles[msg.sender] = Profile(_name, _age, _dob, _username, _password);\r\n    }\r\n\r\n    // Function to create a new post\r\n    function createPost(string memory _content, string memory _media) public {\r\n        Post memory newPost = Post(msg.sender, _content, _media, block.timestamp);\r\n        posts.push(newPost);\r\n        emit PostCreated(msg.sender, _content, _media, block.timestamp);\r\n    }\r\n}\r\n\r\n",
  "sourcePath": "D:\\Dissolve\\dissolve\\contracts\\dissolve.sol",
  "compiler": {
    "name": "solc",
    "version": "0.8.24+commit.e11b9ed9.Emscripten.clang"
  },
  "schemaVersion": "3.4.16",
  "updatedAt": "2024-01-31T08:34:44.272Z",
  "devdoc": {
    "kind": "dev",
    "methods": {},
    "version": 1
  },
  "userdoc": {
    "kind": "user",
    "methods": {},
    "version": 1
  }
}